{
  "contractName": "MyNFT",
  "abi": [
    {
      "inputs": [],
      "stateMutability": "nonpayable",
      "type": "constructor"
    },
    {
      "anonymous": false,
      "inputs": [
        {
          "indexed": true,
          "internalType": "address",
          "name": "owner",
          "type": "address"
        },
        {
          "indexed": true,
          "internalType": "address",
          "name": "approved",
          "type": "address"
        },
        {
          "indexed": true,
          "internalType": "uint256",
          "name": "tokenId",
          "type": "uint256"
        }
      ],
      "name": "Approval",
      "type": "event"
    },
    {
      "anonymous": false,
      "inputs": [
        {
          "indexed": true,
          "internalType": "address",
          "name": "owner",
          "type": "address"
        },
        {
          "indexed": true,
          "internalType": "address",
          "name": "operator",
          "type": "address"
        },
        {
          "indexed": false,
          "internalType": "bool",
          "name": "approved",
          "type": "bool"
        }
      ],
      "name": "ApprovalForAll",
      "type": "event"
    },
    {
      "anonymous": false,
      "inputs": [
        {
          "indexed": true,
          "internalType": "address",
          "name": "from",
          "type": "address"
        },
        {
          "indexed": true,
          "internalType": "address",
          "name": "to",
          "type": "address"
        },
        {
          "indexed": true,
          "internalType": "uint256",
          "name": "tokenId",
          "type": "uint256"
        }
      ],
      "name": "Transfer",
      "type": "event"
    },
    {
      "inputs": [
        {
          "internalType": "address",
          "name": "to",
          "type": "address"
        },
        {
          "internalType": "uint256",
          "name": "tokenId",
          "type": "uint256"
        }
      ],
      "name": "approve",
      "outputs": [],
      "stateMutability": "nonpayable",
      "type": "function"
    },
    {
      "inputs": [
        {
          "internalType": "address",
          "name": "owner",
          "type": "address"
        }
      ],
      "name": "balanceOf",
      "outputs": [
        {
          "internalType": "uint256",
          "name": "",
          "type": "uint256"
        }
      ],
      "stateMutability": "view",
      "type": "function",
      "constant": true
    },
    {
      "inputs": [],
      "name": "counter",
      "outputs": [
        {
          "internalType": "uint256",
          "name": "",
          "type": "uint256"
        }
      ],
      "stateMutability": "view",
      "type": "function",
      "constant": true
    },
    {
      "inputs": [
        {
          "internalType": "uint256",
          "name": "tokenId",
          "type": "uint256"
        }
      ],
      "name": "getApproved",
      "outputs": [
        {
          "internalType": "address",
          "name": "",
          "type": "address"
        }
      ],
      "stateMutability": "view",
      "type": "function",
      "constant": true
    },
    {
      "inputs": [
        {
          "internalType": "address",
          "name": "owner",
          "type": "address"
        },
        {
          "internalType": "address",
          "name": "operator",
          "type": "address"
        }
      ],
      "name": "isApprovedForAll",
      "outputs": [
        {
          "internalType": "bool",
          "name": "",
          "type": "bool"
        }
      ],
      "stateMutability": "view",
      "type": "function",
      "constant": true
    },
    {
      "inputs": [],
      "name": "name",
      "outputs": [
        {
          "internalType": "string",
          "name": "",
          "type": "string"
        }
      ],
      "stateMutability": "view",
      "type": "function",
      "constant": true
    },
    {
      "inputs": [
        {
          "internalType": "uint256",
          "name": "tokenId",
          "type": "uint256"
        }
      ],
      "name": "ownerOf",
      "outputs": [
        {
          "internalType": "address",
          "name": "",
          "type": "address"
        }
      ],
      "stateMutability": "view",
      "type": "function",
      "constant": true
    },
    {
      "inputs": [
        {
          "internalType": "address",
          "name": "from",
          "type": "address"
        },
        {
          "internalType": "address",
          "name": "to",
          "type": "address"
        },
        {
          "internalType": "uint256",
          "name": "tokenId",
          "type": "uint256"
        }
      ],
      "name": "safeTransferFrom",
      "outputs": [],
      "stateMutability": "nonpayable",
      "type": "function"
    },
    {
      "inputs": [
        {
          "internalType": "address",
          "name": "from",
          "type": "address"
        },
        {
          "internalType": "address",
          "name": "to",
          "type": "address"
        },
        {
          "internalType": "uint256",
          "name": "tokenId",
          "type": "uint256"
        },
        {
          "internalType": "bytes",
          "name": "_data",
          "type": "bytes"
        }
      ],
      "name": "safeTransferFrom",
      "outputs": [],
      "stateMutability": "nonpayable",
      "type": "function"
    },
    {
      "inputs": [
        {
          "internalType": "address",
          "name": "operator",
          "type": "address"
        },
        {
          "internalType": "bool",
          "name": "approved",
          "type": "bool"
        }
      ],
      "name": "setApprovalForAll",
      "outputs": [],
      "stateMutability": "nonpayable",
      "type": "function"
    },
    {
      "inputs": [
        {
          "internalType": "bytes4",
          "name": "interfaceId",
          "type": "bytes4"
        }
      ],
      "name": "supportsInterface",
      "outputs": [
        {
          "internalType": "bool",
          "name": "",
          "type": "bool"
        }
      ],
      "stateMutability": "view",
      "type": "function",
      "constant": true
    },
    {
      "inputs": [],
      "name": "symbol",
      "outputs": [
        {
          "internalType": "string",
          "name": "",
          "type": "string"
        }
      ],
      "stateMutability": "view",
      "type": "function",
      "constant": true
    },
    {
      "inputs": [
        {
          "internalType": "uint256",
          "name": "tokenId",
          "type": "uint256"
        }
      ],
      "name": "tokenURI",
      "outputs": [
        {
          "internalType": "string",
          "name": "",
          "type": "string"
        }
      ],
      "stateMutability": "view",
      "type": "function",
      "constant": true
    },
    {
      "inputs": [
        {
          "internalType": "address",
          "name": "from",
          "type": "address"
        },
        {
          "internalType": "address",
          "name": "to",
          "type": "address"
        },
        {
          "internalType": "uint256",
          "name": "tokenId",
          "type": "uint256"
        }
      ],
      "name": "transferFrom",
      "outputs": [],
      "stateMutability": "nonpayable",
      "type": "function"
    },
    {
      "inputs": [
        {
          "internalType": "string",
          "name": "tokenURI",
          "type": "string"
        }
      ],
      "name": "createNFTs",
      "outputs": [
        {
          "internalType": "uint256",
          "name": "",
          "type": "uint256"
        }
      ],
      "stateMutability": "nonpayable",
      "type": "function"
    },
    {
      "inputs": [
        {
          "internalType": "uint256",
          "name": "tokenId",
          "type": "uint256"
        }
      ],
      "name": "burnNFT",
      "outputs": [],
      "stateMutability": "nonpayable",
      "type": "function"
    }
  ],
  "bytecode": "0x60806040523480156200001157600080fd5b506040518060400160405280600d81526020017f43727970746f4c65656b4e4654000000000000000000000000000000000000008152506040518060400160405280600581526020017f434c4e4654000000000000000000000000000000000000000000000000000000815250816000908051906020019062000096929190620000c0565b508060019080519060200190620000af929190620000c0565b5050506000600781905550620001d5565b828054620000ce9062000170565b90600052602060002090601f016020900481019282620000f257600085556200013e565b82601f106200010d57805160ff19168380011785556200013e565b828001600101855582156200013e579182015b828111156200013d57825182559160200191906001019062000120565b5b5090506200014d919062000151565b5090565b5b808211156200016c57600081600090555060010162000152565b5090565b600060028204905060018216806200018957607f821691505b60208210811415620001a0576200019f620001a6565b5b50919050565b7f4e487b7100000000000000000000000000000000000000000000000000000000600052602260045260246000fd5b612ece80620001e56000396000f3fe608060405234801561001057600080fd5b50600436106101005760003560e01c80636352211e11610097578063a22cb46511610066578063a22cb465146102bf578063b88d4fde146102db578063c87b56dd146102f7578063e985e9c51461032757610100565b80636352211e1461021157806370a08231146102415780637c4bcc141461027157806395d89b41146102a157610100565b806323b872dd116100d357806323b872dd1461019f5780632890e0d7146101bb57806342842e0e146101d757806361bc221a146101f357610100565b806301ffc9a71461010557806306fdde0314610135578063081812fc14610153578063095ea7b314610183575b600080fd5b61011f600480360381019061011a9190611ea8565b610357565b60405161012c9190612312565b60405180910390f35b61013d610439565b60405161014a919061232d565b60405180910390f35b61016d60048036038101906101689190611f3b565b6104cb565b60405161017a91906122ab565b60405180910390f35b61019d60048036038101906101989190611e6c565b610550565b005b6101b960048036038101906101b49190611d66565b610668565b005b6101d560048036038101906101d09190611f3b565b6106c8565b005b6101f160048036038101906101ec9190611d66565b61071d565b005b6101fb61073d565b604051610208919061256f565b60405180910390f35b61022b60048036038101906102269190611f3b565b610743565b60405161023891906122ab565b60405180910390f35b61025b60048036038101906102569190611d01565b6107f5565b604051610268919061256f565b60405180910390f35b61028b60048036038101906102869190611efa565b6108ad565b604051610298919061256f565b60405180910390f35b6102a96108ea565b6040516102b6919061232d565b60405180910390f35b6102d960048036038101906102d49190611e30565b61097c565b005b6102f560048036038101906102f09190611db5565b610992565b005b610311600480360381019061030c9190611f3b565b6109f4565b60405161031e919061232d565b60405180910390f35b610341600480360381019061033c9190611d2a565b610b46565b60405161034e9190612312565b60405180910390f35b60007f80ac58cd000000000000000000000000000000000000000000000000000000007bffffffffffffffffffffffffffffffffffffffffffffffffffffffff1916827bffffffffffffffffffffffffffffffffffffffffffffffffffffffff1916148061042257507f5b5e139f000000000000000000000000000000000000000000000000000000007bffffffffffffffffffffffffffffffffffffffffffffffffffffffff1916827bffffffffffffffffffffffffffffffffffffffffffffffffffffffff1916145b80610432575061043182610bda565b5b9050919050565b606060008054610448906127c5565b80601f0160208091040260200160405190810160405280929190818152602001828054610474906127c5565b80156104c15780601f10610496576101008083540402835291602001916104c1565b820191906000526020600020905b8154815290600101906020018083116104a457829003601f168201915b5050505050905090565b60006104d682610c44565b610515576040517f08c379a000000000000000000000000000000000000000000000000000000000815260040161050c906124cf565b60405180910390fd5b6004600083815260200190815260200160002060009054906101000a900473ffffffffffffffffffffffffffffffffffffffff169050919050565b600061055b82610743565b90508073ffffffffffffffffffffffffffffffffffffffff168373ffffffffffffffffffffffffffffffffffffffff1614156105cc576040517f08c379a00000000000000000000000000000000000000000000000000000000081526004016105c39061250f565b60405180910390fd5b8073ffffffffffffffffffffffffffffffffffffffff166105eb610cb0565b73ffffffffffffffffffffffffffffffffffffffff16148061061a575061061981610614610cb0565b610b46565b5b610659576040517f08c379a00000000000000000000000000000000000000000000000000000000081526004016106509061240f565b60405180910390fd5b6106638383610cb8565b505050565b610679610673610cb0565b82610d71565b6106b8576040517f08c379a00000000000000000000000000000000000000000000000000000000081526004016106af9061252f565b60405180910390fd5b6106c3838383610e4f565b505050565b6106d23382610d71565b610711576040517f08c379a00000000000000000000000000000000000000000000000000000000081526004016107089061254f565b60405180910390fd5b61071a816110b6565b50565b61073883838360405180602001604052806000815250610992565b505050565b60075481565b6000806002600084815260200190815260200160002060009054906101000a900473ffffffffffffffffffffffffffffffffffffffff169050600073ffffffffffffffffffffffffffffffffffffffff168173ffffffffffffffffffffffffffffffffffffffff1614156107ec576040517f08c379a00000000000000000000000000000000000000000000000000000000081526004016107e39061244f565b60405180910390fd5b80915050919050565b60008073ffffffffffffffffffffffffffffffffffffffff168273ffffffffffffffffffffffffffffffffffffffff161415610866576040517f08c379a000000000000000000000000000000000000000000000000000000000815260040161085d9061242f565b60405180910390fd5b600360008373ffffffffffffffffffffffffffffffffffffffff1673ffffffffffffffffffffffffffffffffffffffff168152602001908152602001600020549050919050565b60008060075490506108bf3382611109565b6108c98184611127565b600760008154809291906108dc90612828565b919050555080915050919050565b6060600180546108f9906127c5565b80601f0160208091040260200160405190810160405280929190818152602001828054610925906127c5565b80156109725780601f1061094757610100808354040283529160200191610972565b820191906000526020600020905b81548152906001019060200180831161095557829003601f168201915b5050505050905090565b61098e610987610cb0565b838361119b565b5050565b6109a361099d610cb0565b83610d71565b6109e2576040517f08c379a00000000000000000000000000000000000000000000000000000000081526004016109d99061252f565b60405180910390fd5b6109ee84848484611308565b50505050565b60606109ff82610c44565b610a3e576040517f08c379a0000000000000000000000000000000000000000000000000000000008152600401610a35906124af565b60405180910390fd5b6000600660008481526020019081526020016000208054610a5e906127c5565b80601f0160208091040260200160405190810160405280929190818152602001828054610a8a906127c5565b8015610ad75780601f10610aac57610100808354040283529160200191610ad7565b820191906000526020600020905b815481529060010190602001808311610aba57829003601f168201915b505050505090506000610ae8611364565b9050600081511415610afe578192505050610b41565b600082511115610b33578082604051602001610b1b929190612287565b60405160208183030381529060405292505050610b41565b610b3c8461137b565b925050505b919050565b6000600560008473ffffffffffffffffffffffffffffffffffffffff1673ffffffffffffffffffffffffffffffffffffffff16815260200190815260200160002060008373ffffffffffffffffffffffffffffffffffffffff1673ffffffffffffffffffffffffffffffffffffffff16815260200190815260200160002060009054906101000a900460ff16905092915050565b60007f01ffc9a7000000000000000000000000000000000000000000000000000000007bffffffffffffffffffffffffffffffffffffffffffffffffffffffff1916827bffffffffffffffffffffffffffffffffffffffffffffffffffffffff1916149050919050565b60008073ffffffffffffffffffffffffffffffffffffffff166002600084815260200190815260200160002060009054906101000a900473ffffffffffffffffffffffffffffffffffffffff1673ffffffffffffffffffffffffffffffffffffffff1614159050919050565b600033905090565b816004600083815260200190815260200160002060006101000a81548173ffffffffffffffffffffffffffffffffffffffff021916908373ffffffffffffffffffffffffffffffffffffffff160217905550808273ffffffffffffffffffffffffffffffffffffffff16610d2b83610743565b73ffffffffffffffffffffffffffffffffffffffff167f8c5be1e5ebec7d5bd14f71427d1e84f3dd0314c0f7b2291e5b200ac8c7c3b92560405160405180910390a45050565b6000610d7c82610c44565b610dbb576040517f08c379a0000000000000000000000000000000000000000000000000000000008152600401610db2906123ef565b60405180910390fd5b6000610dc683610743565b90508073ffffffffffffffffffffffffffffffffffffffff168473ffffffffffffffffffffffffffffffffffffffff161480610e085750610e078185610b46565b5b80610e4657508373ffffffffffffffffffffffffffffffffffffffff16610e2e846104cb565b73ffffffffffffffffffffffffffffffffffffffff16145b91505092915050565b8273ffffffffffffffffffffffffffffffffffffffff16610e6f82610743565b73ffffffffffffffffffffffffffffffffffffffff1614610ec5576040517f08c379a0000000000000000000000000000000000000000000000000000000008152600401610ebc9061236f565b60405180910390fd5b600073ffffffffffffffffffffffffffffffffffffffff168273ffffffffffffffffffffffffffffffffffffffff161415610f35576040517f08c379a0000000000000000000000000000000000000000000000000000000008152600401610f2c906123af565b60405180910390fd5b610f40838383611422565b610f4b600082610cb8565b6001600360008573ffffffffffffffffffffffffffffffffffffffff1673ffffffffffffffffffffffffffffffffffffffff1681526020019081526020016000206000828254610f9b91906126db565b925050819055506001600360008473ffffffffffffffffffffffffffffffffffffffff1673ffffffffffffffffffffffffffffffffffffffff1681526020019081526020016000206000828254610ff29190612654565b92505081905550816002600083815260200190815260200160002060006101000a81548173ffffffffffffffffffffffffffffffffffffffff021916908373ffffffffffffffffffffffffffffffffffffffff160217905550808273ffffffffffffffffffffffffffffffffffffffff168473ffffffffffffffffffffffffffffffffffffffff167fddf252ad1be2c89b69c2b068fc378daa952ba7f163c4a11628f55a4df523b3ef60405160405180910390a46110b1838383611427565b505050565b6110bf8161142c565b60006006600083815260200190815260200160002080546110df906127c5565b905014611106576006600082815260200190815260200160002060006111059190611ae5565b5b50565b611123828260405180602001604052806000815250611549565b5050565b61113082610c44565b61116f576040517f08c379a00000000000000000000000000000000000000000000000000000000081526004016111669061246f565b60405180910390fd5b80600660008481526020019081526020016000209080519060200190611196929190611b25565b505050565b8173ffffffffffffffffffffffffffffffffffffffff168373ffffffffffffffffffffffffffffffffffffffff16141561120a576040517f08c379a0000000000000000000000000000000000000000000000000000000008152600401611201906123cf565b60405180910390fd5b80600560008573ffffffffffffffffffffffffffffffffffffffff1673ffffffffffffffffffffffffffffffffffffffff16815260200190815260200160002060008473ffffffffffffffffffffffffffffffffffffffff1673ffffffffffffffffffffffffffffffffffffffff16815260200190815260200160002060006101000a81548160ff0219169083151502179055508173ffffffffffffffffffffffffffffffffffffffff168373ffffffffffffffffffffffffffffffffffffffff167f17307eab39ab6107e8899845ad3d59bd9653f200f220920489ca2b5937696c31836040516112fb9190612312565b60405180910390a3505050565b611313848484610e4f565b61131f848484846115a4565b61135e576040517f08c379a00000000000000000000000000000000000000000000000000000000081526004016113559061234f565b60405180910390fd5b50505050565b606060405180602001604052806000815250905090565b606061138682610c44565b6113c5576040517f08c379a00000000000000000000000000000000000000000000000000000000081526004016113bc906124ef565b60405180910390fd5b60006113cf611364565b905060008151116113ef576040518060200160405280600081525061141a565b806113f98461173b565b60405160200161140a929190612287565b6040516020818303038152906040525b915050919050565b505050565b505050565b600061143782610743565b905061144581600084611422565b611450600083610cb8565b6001600360008373ffffffffffffffffffffffffffffffffffffffff1673ffffffffffffffffffffffffffffffffffffffff16815260200190815260200160002060008282546114a091906126db565b925050819055506002600083815260200190815260200160002060006101000a81549073ffffffffffffffffffffffffffffffffffffffff021916905581600073ffffffffffffffffffffffffffffffffffffffff168273ffffffffffffffffffffffffffffffffffffffff167fddf252ad1be2c89b69c2b068fc378daa952ba7f163c4a11628f55a4df523b3ef60405160405180910390a461154581600084611427565b5050565b61155383836118e8565b61156060008484846115a4565b61159f576040517f08c379a00000000000000000000000000000000000000000000000000000000081526004016115969061234f565b60405180910390fd5b505050565b60006115c58473ffffffffffffffffffffffffffffffffffffffff16611ac2565b1561172e578373ffffffffffffffffffffffffffffffffffffffff1663150b7a026115ee610cb0565b8786866040518563ffffffff1660e01b815260040161161094939291906122c6565b602060405180830381600087803b15801561162a57600080fd5b505af192505050801561165b57506040513d601f19601f820116820180604052508101906116589190611ed1565b60015b6116de573d806000811461168b576040519150601f19603f3d011682016040523d82523d6000602084013e611690565b606091505b506000815114156116d6576040517f08c379a00000000000000000000000000000000000000000000000000000000081526004016116cd9061234f565b60405180910390fd5b805181602001fd5b63150b7a0260e01b7bffffffffffffffffffffffffffffffffffffffffffffffffffffffff1916817bffffffffffffffffffffffffffffffffffffffffffffffffffffffff191614915050611733565b600190505b949350505050565b60606000821415611783576040518060400160405280600181526020017f300000000000000000000000000000000000000000000000000000000000000081525090506118e3565b600082905060005b600082146117b557808061179e90612828565b915050600a826117ae91906126aa565b915061178b565b60008167ffffffffffffffff8111156117f7577f4e487b7100000000000000000000000000000000000000000000000000000000600052604160045260246000fd5b6040519080825280601f01601f1916602001820160405280156118295781602001600182028036833780820191505090505b5090505b600085146118dc5760018261184291906126db565b9150600a856118519190612871565b603061185d9190612654565b60f81b818381518110611899577f4e487b7100000000000000000000000000000000000000000000000000000000600052603260045260246000fd5b60200101907effffffffffffffffffffffffffffffffffffffffffffffffffffffffffffff1916908160001a905350600a856118d591906126aa565b945061182d565b8093505050505b919050565b600073ffffffffffffffffffffffffffffffffffffffff168273ffffffffffffffffffffffffffffffffffffffff161415611958576040517f08c379a000000000000000000000000000000000000000000000000000000000815260040161194f9061248f565b60405180910390fd5b61196181610c44565b156119a1576040517f08c379a00000000000000000000000000000000000000000000000000000000081526004016119989061238f565b60405180910390fd5b6119ad60008383611422565b6001600360008473ffffffffffffffffffffffffffffffffffffffff1673ffffffffffffffffffffffffffffffffffffffff16815260200190815260200160002060008282546119fd9190612654565b92505081905550816002600083815260200190815260200160002060006101000a81548173ffffffffffffffffffffffffffffffffffffffff021916908373ffffffffffffffffffffffffffffffffffffffff160217905550808273ffffffffffffffffffffffffffffffffffffffff16600073ffffffffffffffffffffffffffffffffffffffff167fddf252ad1be2c89b69c2b068fc378daa952ba7f163c4a11628f55a4df523b3ef60405160405180910390a4611abe60008383611427565b5050565b6000808273ffffffffffffffffffffffffffffffffffffffff163b119050919050565b508054611af1906127c5565b6000825580601f10611b035750611b22565b601f016020900490600052602060002090810190611b219190611bab565b5b50565b828054611b31906127c5565b90600052602060002090601f016020900481019282611b535760008555611b9a565b82601f10611b6c57805160ff1916838001178555611b9a565b82800160010185558215611b9a579182015b82811115611b99578251825591602001919060010190611b7e565b5b509050611ba79190611bab565b5090565b5b80821115611bc4576000816000905550600101611bac565b5090565b6000611bdb611bd6846125af565b61258a565b905082815260208101848484011115611bf357600080fd5b611bfe848285612783565b509392505050565b6000611c19611c14846125e0565b61258a565b905082815260208101848484011115611c3157600080fd5b611c3c848285612783565b509392505050565b600081359050611c5381612e3c565b92915050565b600081359050611c6881612e53565b92915050565b600081359050611c7d81612e6a565b92915050565b600081519050611c9281612e6a565b92915050565b600082601f830112611ca957600080fd5b8135611cb9848260208601611bc8565b91505092915050565b600082601f830112611cd357600080fd5b8135611ce3848260208601611c06565b91505092915050565b600081359050611cfb81612e81565b92915050565b600060208284031215611d1357600080fd5b6000611d2184828501611c44565b91505092915050565b60008060408385031215611d3d57600080fd5b6000611d4b85828601611c44565b9250506020611d5c85828601611c44565b9150509250929050565b600080600060608486031215611d7b57600080fd5b6000611d8986828701611c44565b9350506020611d9a86828701611c44565b9250506040611dab86828701611cec565b9150509250925092565b60008060008060808587031215611dcb57600080fd5b6000611dd987828801611c44565b9450506020611dea87828801611c44565b9350506040611dfb87828801611cec565b925050606085013567ffffffffffffffff811115611e1857600080fd5b611e2487828801611c98565b91505092959194509250565b60008060408385031215611e4357600080fd5b6000611e5185828601611c44565b9250506020611e6285828601611c59565b9150509250929050565b60008060408385031215611e7f57600080fd5b6000611e8d85828601611c44565b9250506020611e9e85828601611cec565b9150509250929050565b600060208284031215611eba57600080fd5b6000611ec884828501611c6e565b91505092915050565b600060208284031215611ee357600080fd5b6000611ef184828501611c83565b91505092915050565b600060208284031215611f0c57600080fd5b600082013567ffffffffffffffff811115611f2657600080fd5b611f3284828501611cc2565b91505092915050565b600060208284031215611f4d57600080fd5b6000611f5b84828501611cec565b91505092915050565b611f6d8161270f565b82525050565b611f7c81612721565b82525050565b6000611f8d82612611565b611f978185612627565b9350611fa7818560208601612792565b611fb08161295e565b840191505092915050565b6000611fc68261261c565b611fd08185612638565b9350611fe0818560208601612792565b611fe98161295e565b840191505092915050565b6000611fff8261261c565b6120098185612649565b9350612019818560208601612792565b80840191505092915050565b6000612032603283612638565b915061203d8261296f565b604082019050919050565b6000612055602583612638565b9150612060826129be565b604082019050919050565b6000612078601c83612638565b915061208382612a0d565b602082019050919050565b600061209b602483612638565b91506120a682612a36565b604082019050919050565b60006120be601983612638565b91506120c982612a85565b602082019050919050565b60006120e1602c83612638565b91506120ec82612aae565b604082019050919050565b6000612104603883612638565b915061210f82612afd565b604082019050919050565b6000612127602a83612638565b915061213282612b4c565b604082019050919050565b600061214a602983612638565b915061215582612b9b565b604082019050919050565b600061216d602e83612638565b915061217882612bea565b604082019050919050565b6000612190602083612638565b915061219b82612c39565b602082019050919050565b60006121b3603183612638565b91506121be82612c62565b604082019050919050565b60006121d6602c83612638565b91506121e182612cb1565b604082019050919050565b60006121f9602f83612638565b915061220482612d00565b604082019050919050565b600061221c602183612638565b915061222782612d4f565b604082019050919050565b600061223f603183612638565b915061224a82612d9e565b604082019050919050565b6000612262602383612638565b915061226d82612ded565b604082019050919050565b61228181612779565b82525050565b60006122938285611ff4565b915061229f8284611ff4565b91508190509392505050565b60006020820190506122c06000830184611f64565b92915050565b60006080820190506122db6000830187611f64565b6122e86020830186611f64565b6122f56040830185612278565b81810360608301526123078184611f82565b905095945050505050565b60006020820190506123276000830184611f73565b92915050565b600060208201905081810360008301526123478184611fbb565b905092915050565b6000602082019050818103600083015261236881612025565b9050919050565b6000602082019050818103600083015261238881612048565b9050919050565b600060208201905081810360008301526123a88161206b565b9050919050565b600060208201905081810360008301526123c88161208e565b9050919050565b600060208201905081810360008301526123e8816120b1565b9050919050565b60006020820190508181036000830152612408816120d4565b9050919050565b60006020820190508181036000830152612428816120f7565b9050919050565b600060208201905081810360008301526124488161211a565b9050919050565b600060208201905081810360008301526124688161213d565b9050919050565b6000602082019050818103600083015261248881612160565b9050919050565b600060208201905081810360008301526124a881612183565b9050919050565b600060208201905081810360008301526124c8816121a6565b9050919050565b600060208201905081810360008301526124e8816121c9565b9050919050565b60006020820190508181036000830152612508816121ec565b9050919050565b600060208201905081810360008301526125288161220f565b9050919050565b6000602082019050818103600083015261254881612232565b9050919050565b6000602082019050818103600083015261256881612255565b9050919050565b60006020820190506125846000830184612278565b92915050565b60006125946125a5565b90506125a082826127f7565b919050565b6000604051905090565b600067ffffffffffffffff8211156125ca576125c961292f565b5b6125d38261295e565b9050602081019050919050565b600067ffffffffffffffff8211156125fb576125fa61292f565b5b6126048261295e565b9050602081019050919050565b600081519050919050565b600081519050919050565b600082825260208201905092915050565b600082825260208201905092915050565b600081905092915050565b600061265f82612779565b915061266a83612779565b9250827fffffffffffffffffffffffffffffffffffffffffffffffffffffffffffffffff0382111561269f5761269e6128a2565b5b828201905092915050565b60006126b582612779565b91506126c083612779565b9250826126d0576126cf6128d1565b5b828204905092915050565b60006126e682612779565b91506126f183612779565b925082821015612704576127036128a2565b5b828203905092915050565b600061271a82612759565b9050919050565b60008115159050919050565b60007fffffffff0000000000000000000000000000000000000000000000000000000082169050919050565b600073ffffffffffffffffffffffffffffffffffffffff82169050919050565b6000819050919050565b82818337600083830152505050565b60005b838110156127b0578082015181840152602081019050612795565b838111156127bf576000848401525b50505050565b600060028204905060018216806127dd57607f821691505b602082108114156127f1576127f0612900565b5b50919050565b6128008261295e565b810181811067ffffffffffffffff8211171561281f5761281e61292f565b5b80604052505050565b600061283382612779565b91507fffffffffffffffffffffffffffffffffffffffffffffffffffffffffffffffff821415612866576128656128a2565b5b600182019050919050565b600061287c82612779565b915061288783612779565b925082612897576128966128d1565b5b828206905092915050565b7f4e487b7100000000000000000000000000000000000000000000000000000000600052601160045260246000fd5b7f4e487b7100000000000000000000000000000000000000000000000000000000600052601260045260246000fd5b7f4e487b7100000000000000000000000000000000000000000000000000000000600052602260045260246000fd5b7f4e487b7100000000000000000000000000000000000000000000000000000000600052604160045260246000fd5b6000601f19601f8301169050919050565b7f4552433732313a207472616e7366657220746f206e6f6e20455243373231526560008201527f63656976657220696d706c656d656e7465720000000000000000000000000000602082015250565b7f4552433732313a207472616e736665722066726f6d20696e636f72726563742060008201527f6f776e6572000000000000000000000000000000000000000000000000000000602082015250565b7f4552433732313a20746f6b656e20616c7265616479206d696e74656400000000600082015250565b7f4552433732313a207472616e7366657220746f20746865207a65726f2061646460008201527f7265737300000000000000000000000000000000000000000000000000000000602082015250565b7f4552433732313a20617070726f766520746f2063616c6c657200000000000000600082015250565b7f4552433732313a206f70657261746f7220717565727920666f72206e6f6e657860008201527f697374656e7420746f6b656e0000000000000000000000000000000000000000602082015250565b7f4552433732313a20617070726f76652063616c6c6572206973206e6f74206f7760008201527f6e6572206e6f7220617070726f76656420666f7220616c6c0000000000000000602082015250565b7f4552433732313a2062616c616e636520717565727920666f7220746865207a6560008201527f726f206164647265737300000000000000000000000000000000000000000000602082015250565b7f4552433732313a206f776e657220717565727920666f72206e6f6e657869737460008201527f656e7420746f6b656e0000000000000000000000000000000000000000000000602082015250565b7f45524337323155524953746f726167653a2055524920736574206f66206e6f6e60008201527f6578697374656e7420746f6b656e000000000000000000000000000000000000602082015250565b7f4552433732313a206d696e7420746f20746865207a65726f2061646472657373600082015250565b7f45524337323155524953746f726167653a2055524920717565727920666f722060008201527f6e6f6e6578697374656e7420746f6b656e000000000000000000000000000000602082015250565b7f4552433732313a20617070726f76656420717565727920666f72206e6f6e657860008201527f697374656e7420746f6b656e0000000000000000000000000000000000000000602082015250565b7f4552433732314d657461646174613a2055524920717565727920666f72206e6f60008201527f6e6578697374656e7420746f6b656e0000000000000000000000000000000000602082015250565b7f4552433732313a20617070726f76616c20746f2063757272656e74206f776e6560008201527f7200000000000000000000000000000000000000000000000000000000000000602082015250565b7f4552433732313a207472616e736665722063616c6c6572206973206e6f74206f60008201527f776e6572206e6f7220617070726f766564000000000000000000000000000000602082015250565b7f596f7520617265206e6f7420746865206f776e6572206e6f7220617070726f7660008201527f6564210000000000000000000000000000000000000000000000000000000000602082015250565b612e458161270f565b8114612e5057600080fd5b50565b612e5c81612721565b8114612e6757600080fd5b50565b612e738161272d565b8114612e7e57600080fd5b50565b612e8a81612779565b8114612e9557600080fd5b5056fea2646970667358221220848117f65318d5b7a26e87d8fa00889c496464b06e097389ccec3fe628ca3b8964736f6c63430008040033",
  "immutableReferences": {},
  "source": "// SPDX-License-Identifier: MIT\npragma solidity 0.8.4;\n\nimport \"@openzeppelin/contracts/token/ERC721/extensions/ERC721URIStorage.sol\";\n\ncontract MyNFT is ERC721URIStorage {\n    uint public counter;\n    constructor() ERC721(\"CryptoLeekNFT\",\"CLNFT\"){\n        counter = 0;\n    }\n\n    function createNFTs(string memory tokenURI) public returns (uint){\n        uint tokenId = counter;\n        _safeMint(msg.sender,tokenId);\n        _setTokenURI(tokenId,tokenURI);\n        counter++;\n        return tokenId;\n    }\n\n    function burnNFT(uint256 tokenId) public virtual {\n        require(_isApprovedOrOwner(msg.sender,tokenId),\"You are not the owner nor approved!\");\n        super._burn(tokenId);\n    }\n\n\n}\n",
  "sourcePath": "/Users/zxh/project/crypto-demo/contracts/MyNFT.sol",
  "compiler": {
    "name": "solc",
    "version": "0.8.4+commit.c7e474f2.Emscripten.clang"
  },
  "schemaVersion": "3.4.7",
  "updatedAt": "2022-05-15T13:54:27.780Z",
  "networkType": "ethereum",
  "devdoc": {
    "kind": "dev",
    "methods": {
      "approve(address,uint256)": {
        "details": "See {IERC721-approve}."
      },
      "balanceOf(address)": {
        "details": "See {IERC721-balanceOf}."
      },
      "getApproved(uint256)": {
        "details": "See {IERC721-getApproved}."
      },
      "isApprovedForAll(address,address)": {
        "details": "See {IERC721-isApprovedForAll}."
      },
      "name()": {
        "details": "See {IERC721Metadata-name}."
      },
      "ownerOf(uint256)": {
        "details": "See {IERC721-ownerOf}."
      },
      "safeTransferFrom(address,address,uint256)": {
        "details": "See {IERC721-safeTransferFrom}."
      },
      "safeTransferFrom(address,address,uint256,bytes)": {
        "details": "See {IERC721-safeTransferFrom}."
      },
      "setApprovalForAll(address,bool)": {
        "details": "See {IERC721-setApprovalForAll}."
      },
      "supportsInterface(bytes4)": {
        "details": "See {IERC165-supportsInterface}."
      },
      "symbol()": {
        "details": "See {IERC721Metadata-symbol}."
      },
      "tokenURI(uint256)": {
        "details": "See {IERC721Metadata-tokenURI}."
      },
      "transferFrom(address,address,uint256)": {
        "details": "See {IERC721-transferFrom}."
      }
    },
    "version": 1
  },
  "userdoc": {
    "kind": "user",
    "methods": {},
    "version": 1
  }
}